{
  "contractName": "Item",
  "abi": [
    {
      "inputs": [
        {
          "internalType": "contract ItemManager",
          "name": "_itemManager",
          "type": "address"
        },
        {
          "internalType": "string",
          "name": "_name",
          "type": "string"
        },
        {
          "internalType": "uint256",
          "name": "_priceInWei",
          "type": "uint256"
        },
        {
          "internalType": "uint256",
          "name": "_index",
          "type": "uint256"
        }
      ],
      "stateMutability": "nonpayable",
      "type": "constructor"
    },
    {
      "stateMutability": "nonpayable",
      "type": "fallback"
    },
    {
      "stateMutability": "payable",
      "type": "receive"
    },
    {
      "inputs": [],
      "name": "getPrice",
      "outputs": [
        {
          "internalType": "uint256",
          "name": "",
          "type": "uint256"
        }
      ],
      "stateMutability": "view",
      "type": "function"
    },
    {
      "inputs": [
        {
          "internalType": "uint256",
          "name": "_priceItem",
          "type": "uint256"
        }
      ],
      "name": "setPricePaid",
      "outputs": [],
      "stateMutability": "nonpayable",
      "type": "function"
    },
    {
      "inputs": [],
      "name": "getPricePaid",
      "outputs": [
        {
          "internalType": "uint256",
          "name": "",
          "type": "uint256"
        }
      ],
      "stateMutability": "view",
      "type": "function"
    }
  ],
  "bytecode": "0x608060405234801561001057600080fd5b5060405161054b38038061054b8339818101604052608081101561003357600080fd5b81019080805190602001909291908051604051939291908464010000000082111561005d57600080fd5b8382019150602082018581111561007357600080fd5b825186600182028301116401000000008211171561009057600080fd5b8083526020830192505050908051906020019080838360005b838110156100c45780820151818401526020810190506100a9565b50505050905090810190601f1680156100f15780820380516001836020036101000a031916815260200191505b5060405260200180519060200190929190805190602001909291905050508260009080519060200190610125929190610186565b508160018190555060006002819055508060038190555083600460006101000a81548173ffffffffffffffffffffffffffffffffffffffff021916908373ffffffffffffffffffffffffffffffffffffffff1602179055505050505061022b565b828054600181600116156101000203166002900490600052602060002090601f016020900481019282601f106101c757805160ff19168380011785556101f5565b828001600101855582156101f5579182015b828111156101f45782518255916020019190600101906101d9565b5b5090506102029190610206565b5090565b61022891905b8082111561022457600081600090555060010161020c565b5090565b90565b6103118061023a6000396000f3fe6080604052600436106100385760003560e01c80633b1c0f981461022c57806376d972f71461025757806398d5fdca146102925761021d565b3661021d576000600460009054906101000a900473ffffffffffffffffffffffffffffffffffffffff1673ffffffffffffffffffffffffffffffffffffffff1634600354604051602401808281526020019150506040516020818303038152906040527f800fb83f000000000000000000000000000000000000000000000000000000007bffffffffffffffffffffffffffffffffffffffffffffffffffffffff19166020820180517bffffffffffffffffffffffffffffffffffffffffffffffffffffffff83818316178352505050506040518082805190602001908083835b6020831061013c5780518252602082019150602081019050602083039250610119565b6001836020036101000a03801982511681845116808217855250505050505090500191505060006040518083038185875af1925050503d806000811461019e576040519150601f19603f3d011682016040523d82523d6000602084013e6101a3565b606091505b505090508061021a576040517f08c379a000000000000000000000000000000000000000000000000000000000815260040180806020018281038252601e8152602001807f5472616e73616b73692050656d62656c69616e204974656d20476167616c000081525060200191505060405180910390fd5b50005b34801561022957600080fd5b50005b34801561023857600080fd5b506102416102bd565b6040518082815260200191505060405180910390f35b34801561026357600080fd5b506102906004803603602081101561027a57600080fd5b81019080803590602001909291905050506102c7565b005b34801561029e57600080fd5b506102a76102d1565b6040518082815260200191505060405180910390f35b6000600254905090565b8060028190555050565b600060015490509056fea264697066735822122011d463b26013fdca6e8dd7bfda873453059ea4cc593a14cf7c942763812a0e4264736f6c63430006010033",
  "source": "pragma solidity ^0.6.0;\r\n\r\nimport \"./ItemManager.sol\";\r\n\r\ncontract Item{\r\n    string private name;\r\n    uint private priceInWei;\r\n    uint private pricePaid;\r\n    uint private index;\r\n\r\n    ItemManager itemManager;\r\n\r\n    constructor(ItemManager _itemManager, string memory _name, uint _priceInWei, uint _index) public{\r\n        name = _name;\r\n        priceInWei = _priceInWei;\r\n        pricePaid = 0;\r\n        index = _index;\r\n        itemManager = _itemManager;\r\n    }\r\n\r\n    receive() external payable{\r\n        (bool success, ) = address(itemManager).call.value(msg.value)(abi.encodeWithSignature(\"triggerPayment(uint256)\", index));\r\n        require(success, \"Transaksi Pembelian Item Gagal\");\r\n    }\r\n\r\n    fallback() external{}\r\n\r\n\r\n    function getPrice() public view returns(uint){\r\n        return priceInWei;\r\n    }\r\n    \r\n    function setPricePaid(uint _priceItem) public{\r\n        pricePaid = _priceItem;\r\n    }\r\n\r\n    function getPricePaid() public view returns(uint){\r\n        return pricePaid;\r\n    }\r\n}",
  "sourcePath": "D:\\__LEARN\\Blockchain\\pos_blockchain\\contracts\\Item.sol",
  "compiler": {
    "name": "solc",
    "version": "0.6.1+commit.e6f7d5a4.Emscripten.clang"
  },
  "schemaVersion": "3.4.4",
  "updatedAt": "2022-02-25T02:57:13.417Z",
  "devdoc": {
    "methods": {}
  },
  "userdoc": {
    "methods": {}
  }
}