{
  "contractName": "ItemManager",
  "abi": [
    {
      "anonymous": false,
      "inputs": [
        {
          "indexed": false,
          "internalType": "uint256",
          "name": "_itemIndex",
          "type": "uint256"
        },
        {
          "indexed": false,
          "internalType": "uint256",
          "name": "_step",
          "type": "uint256"
        },
        {
          "indexed": false,
          "internalType": "address",
          "name": "_address",
          "type": "address"
        }
      ],
      "name": "SupplyChainStep",
      "type": "event"
    },
    {
      "inputs": [],
      "name": "isOwner",
      "outputs": [
        {
          "internalType": "bool",
          "name": "",
          "type": "bool"
        }
      ],
      "stateMutability": "view",
      "type": "function",
      "constant": true
    },
    {
      "inputs": [
        {
          "internalType": "uint256",
          "name": "",
          "type": "uint256"
        }
      ],
      "name": "items",
      "outputs": [
        {
          "internalType": "contract Item",
          "name": "item",
          "type": "address"
        },
        {
          "internalType": "enum ItemManager.StateSupplyChain",
          "name": "_state",
          "type": "uint8"
        }
      ],
      "stateMutability": "view",
      "type": "function",
      "constant": true
    },
    {
      "inputs": [
        {
          "internalType": "string",
          "name": "_itemName",
          "type": "string"
        },
        {
          "internalType": "uint256",
          "name": "_itemPrice",
          "type": "uint256"
        }
      ],
      "name": "createItem",
      "outputs": [],
      "stateMutability": "nonpayable",
      "type": "function"
    },
    {
      "inputs": [
        {
          "internalType": "uint256",
          "name": "_itemIndex",
          "type": "uint256"
        }
      ],
      "name": "triggerPayment",
      "outputs": [],
      "stateMutability": "payable",
      "type": "function",
      "payable": true
    },
    {
      "inputs": [
        {
          "internalType": "uint256",
          "name": "_itemIndex",
          "type": "uint256"
        }
      ],
      "name": "triggerDeliverd",
      "outputs": [],
      "stateMutability": "nonpayable",
      "type": "function"
    }
  ],
  "bytecode": "0x6080604052336000806101000a81548173ffffffffffffffffffffffffffffffffffffffff021916908373ffffffffffffffffffffffffffffffffffffffff1602179055506112d1806100536000396000f3fe60806040526004361061004a5760003560e01c8063800fb83f1461004f5780638c5517421461007d5780638f32d59b1461014f57806391ea469c1461017e578063bfb231d2146101b9575b600080fd5b61007b6004803603602081101561006557600080fd5b8101908080359060200190929190505050610249565b005b34801561008957600080fd5b5061014d600480360360408110156100a057600080fd5b81019080803590602001906401000000008111156100bd57600080fd5b8201836020820111156100cf57600080fd5b803590602001918460018302840111640100000000831117156100f157600080fd5b91908080601f016020809104026020016040519081016040528093929190818152602001838380828437600081840152601f19601f82011690508083019250505050505050919291929080359060200190929190505050610778565b005b34801561015b57600080fd5b50610164610a50565b604051808215151515815260200191505060405180910390f35b34801561018a57600080fd5b506101b7600480360360208110156101a157600080fd5b8101908080359060200190929190505050610aa7565b005b3480156101c557600080fd5b506101f2600480360360208110156101dc57600080fd5b8101908080359060200190929190505050610cbf565b604051808373ffffffffffffffffffffffffffffffffffffffff1673ffffffffffffffffffffffffffffffffffffffff16815260200182600281111561023457fe5b60ff1681526020019250505060405180910390f35b346001600083815260200190815260200160002060000160009054906101000a900473ffffffffffffffffffffffffffffffffffffffff1673ffffffffffffffffffffffffffffffffffffffff166398d5fdca6040518163ffffffff1660e01b815260040160206040518083038186803b1580156102c657600080fd5b505afa1580156102da573d6000803e3d6000fd5b505050506040513d60208110156102f057600080fd5b810190808051906020019092919050505014610357576040517f08c379a00000000000000000000000000000000000000000000000000000000081526004018080602001828103825260338152602001806112696033913960400191505060405180910390fd5b6000600281111561036457fe5b6001600083815260200190815260200160002060000160149054906101000a900460ff16600281111561039357fe5b14610406576040517f08c379a00000000000000000000000000000000000000000000000000000000081526004018080602001828103825260158152602001807f426172616e6720746964616b207465727365646961000000000000000000000081525060200191505060405180910390fd5b6001600082815260200190815260200160002060000160009054906101000a900473ffffffffffffffffffffffffffffffffffffffff1673ffffffffffffffffffffffffffffffffffffffff166398d5fdca6040518163ffffffff1660e01b815260040160206040518083038186803b15801561048257600080fd5b505afa158015610496573d6000803e3d6000fd5b505050506040513d60208110156104ac57600080fd5b81019080805190602001909291905050506001600083815260200190815260200160002060000160009054906101000a900473ffffffffffffffffffffffffffffffffffffffff1673ffffffffffffffffffffffffffffffffffffffff16633b1c0f986040518163ffffffff1660e01b815260040160206040518083038186803b15801561053957600080fd5b505afa15801561054d573d6000803e3d6000fd5b505050506040513d602081101561056357600080fd5b810190808051906020019092919050505014156105e8576040517f08c379a00000000000000000000000000000000000000000000000000000000081526004018080602001828103825260158152602001807f426172616e6720746964616b207465727365646961000000000000000000000081525060200191505060405180910390fd5b600180600083815260200190815260200160002060000160146101000a81548160ff0219169083600281111561061a57fe5b02179055506001600082815260200190815260200160002060000160009054906101000a900473ffffffffffffffffffffffffffffffffffffffff1673ffffffffffffffffffffffffffffffffffffffff166376d972f7346040518263ffffffff1660e01b815260040180828152602001915050600060405180830381600087803b1580156106a857600080fd5b505af11580156106bc573d6000803e3d6000fd5b505050507fa4035636e99f06b7651a604c1019fa4e8779fe68ef27eeb74dff2de348f6199b81600160028111156106ef57fe5b6001600085815260200190815260200160002060000160009054906101000a900473ffffffffffffffffffffffffffffffffffffffff16604051808481526020018381526020018273ffffffffffffffffffffffffffffffffffffffff1673ffffffffffffffffffffffffffffffffffffffff168152602001935050505060405180910390a150565b610780610a50565b6107f2576040517f08c379a000000000000000000000000000000000000000000000000000000000815260040180806020018281038252600e8152602001807f4f6e6c79204f776e65722043616e00000000000000000000000000000000000081525060200191505060405180910390fd5b600030838360025460405161080690610d10565b808573ffffffffffffffffffffffffffffffffffffffff1673ffffffffffffffffffffffffffffffffffffffff16815260200180602001848152602001838152602001828103825285818151815260200191508051906020019080838360005b83811015610881578082015181840152602081019050610866565b50505050905090810190601f1680156108ae5780820380516001836020036101000a031916815260200191505b5095505050505050604051809103906000f0801580156108d2573d6000803e3d6000fd5b50905060405180604001604052808273ffffffffffffffffffffffffffffffffffffffff1681526020016000600281111561090957fe5b81525060016000600254815260200190815260200160002060008201518160000160006101000a81548173ffffffffffffffffffffffffffffffffffffffff021916908373ffffffffffffffffffffffffffffffffffffffff16021790555060208201518160000160146101000a81548160ff0219169083600281111561098c57fe5b02179055509050507fa4035636e99f06b7651a604c1019fa4e8779fe68ef27eeb74dff2de348f6199b60025460016000600254815260200190815260200160002060000160149054906101000a900460ff1660028111156109e957fe5b83604051808481526020018381526020018273ffffffffffffffffffffffffffffffffffffffff1673ffffffffffffffffffffffffffffffffffffffff168152602001935050505060405180910390a1600260008154809291906001019190505550505050565b60003373ffffffffffffffffffffffffffffffffffffffff166000809054906101000a900473ffffffffffffffffffffffffffffffffffffffff1673ffffffffffffffffffffffffffffffffffffffff1614905090565b610aaf610a50565b610b21576040517f08c379a000000000000000000000000000000000000000000000000000000000815260040180806020018281038252600e8152602001807f4f6e6c79204f776e65722043616e00000000000000000000000000000000000081525060200191505060405180910390fd5b60016002811115610b2e57fe5b6001600083815260200190815260200160002060000160149054906101000a900460ff166002811115610b5d57fe5b14610bd0576040517f08c379a00000000000000000000000000000000000000000000000000000000081526004018080602001828103825260148152602001807f426172616e672062656c756d206469626179617200000000000000000000000081525060200191505060405180910390fd5b60026001600083815260200190815260200160002060000160146101000a81548160ff02191690836002811115610c0357fe5b02179055507fa4035636e99f06b7651a604c1019fa4e8779fe68ef27eeb74dff2de348f6199b81600280811115610c3657fe5b6001600085815260200190815260200160002060000160009054906101000a900473ffffffffffffffffffffffffffffffffffffffff16604051808481526020018381526020018273ffffffffffffffffffffffffffffffffffffffff1673ffffffffffffffffffffffffffffffffffffffff168152602001935050505060405180910390a150565b60016020528060005260406000206000915090508060000160009054906101000a900473ffffffffffffffffffffffffffffffffffffffff16908060000160149054906101000a900460ff16905082565b61054b80610d1e8339019056fe608060405234801561001057600080fd5b5060405161054b38038061054b8339818101604052608081101561003357600080fd5b81019080805190602001909291908051604051939291908464010000000082111561005d57600080fd5b8382019150602082018581111561007357600080fd5b825186600182028301116401000000008211171561009057600080fd5b8083526020830192505050908051906020019080838360005b838110156100c45780820151818401526020810190506100a9565b50505050905090810190601f1680156100f15780820380516001836020036101000a031916815260200191505b5060405260200180519060200190929190805190602001909291905050508260009080519060200190610125929190610186565b508160018190555060006002819055508060038190555083600460006101000a81548173ffffffffffffffffffffffffffffffffffffffff021916908373ffffffffffffffffffffffffffffffffffffffff1602179055505050505061022b565b828054600181600116156101000203166002900490600052602060002090601f016020900481019282601f106101c757805160ff19168380011785556101f5565b828001600101855582156101f5579182015b828111156101f45782518255916020019190600101906101d9565b5b5090506102029190610206565b5090565b61022891905b8082111561022457600081600090555060010161020c565b5090565b90565b6103118061023a6000396000f3fe6080604052600436106100385760003560e01c80633b1c0f981461022c57806376d972f71461025757806398d5fdca146102925761021d565b3661021d576000600460009054906101000a900473ffffffffffffffffffffffffffffffffffffffff1673ffffffffffffffffffffffffffffffffffffffff1634600354604051602401808281526020019150506040516020818303038152906040527f800fb83f000000000000000000000000000000000000000000000000000000007bffffffffffffffffffffffffffffffffffffffffffffffffffffffff19166020820180517bffffffffffffffffffffffffffffffffffffffffffffffffffffffff83818316178352505050506040518082805190602001908083835b6020831061013c5780518252602082019150602081019050602083039250610119565b6001836020036101000a03801982511681845116808217855250505050505090500191505060006040518083038185875af1925050503d806000811461019e576040519150601f19603f3d011682016040523d82523d6000602084013e6101a3565b606091505b505090508061021a576040517f08c379a000000000000000000000000000000000000000000000000000000000815260040180806020018281038252601e8152602001807f5472616e73616b73692050656d62656c69616e204974656d20476167616c000081525060200191505060405180910390fd5b50005b34801561022957600080fd5b50005b34801561023857600080fd5b506102416102bd565b6040518082815260200191505060405180910390f35b34801561026357600080fd5b506102906004803603602081101561027a57600080fd5b81019080803590602001909291905050506102c7565b005b34801561029e57600080fd5b506102a76102d1565b6040518082815260200191505060405180910390f35b6000600254905090565b8060028190555050565b600060015490509056fea264697066735822122011d463b26013fdca6e8dd7bfda873453059ea4cc593a14cf7c942763812a0e4264736f6c6343000601003348617267612079616e672064696261796172206861727573207365737561692064656e67616e20486172676120426172616e67a26469706673582212209f3e61b138ace528f4b9d080b7b1f74db9d6354edda21785cd814031fdadb78c64736f6c63430006010033",
  "source": "\r\npragma solidity ^0.6.0;\r\n\r\nimport \"./Ownable.sol\";\r\nimport \"./Item.sol\";\r\n\r\ncontract ItemManager is Ownable{\r\n\r\n    enum StateSupplyChain{ Created, Paid, Delivered}\r\n\r\n    struct Transaksi_Item{\r\n        Item item;\r\n        ItemManager.StateSupplyChain _state;\r\n    }\r\n\r\n    event SupplyChainStep(uint _itemIndex, uint _step, address _address);\r\n\r\n    mapping(uint => Transaksi_Item) public items;\r\n    uint itemIndex;\r\n\r\n    function createItem(string memory _itemName, uint _itemPrice) public onlyOwner{\r\n        Item item = new Item(this, _itemName, _itemPrice, itemIndex);\r\n        items[itemIndex] =  Transaksi_Item(item, StateSupplyChain.Created);\r\n\r\n        emit SupplyChainStep(itemIndex, uint(items[itemIndex]._state), address(item));\r\n        itemIndex++;\r\n    }\r\n\r\n    function triggerPayment(uint _itemIndex) public payable{\r\n        require(items[_itemIndex].item.getPrice() == msg.value, \"Harga yang dibayar harus sesuai dengan Harga Barang\");\r\n        require(items[_itemIndex]._state == StateSupplyChain.Created, \"Barang tidak tersedia\");\r\n        require(items[_itemIndex].item.getPricePaid() != items[_itemIndex].item.getPrice(), \"Barang tidak tersedia\");\r\n\r\n        items[_itemIndex]._state = StateSupplyChain.Paid;\r\n        items[_itemIndex].item.setPricePaid(msg.value);\r\n\r\n        emit SupplyChainStep(_itemIndex, uint(StateSupplyChain.Paid), address(items[_itemIndex].item));      \r\n    }\r\n\r\n    function triggerDeliverd(uint _itemIndex) public onlyOwner{\r\n        require(items[_itemIndex]._state == StateSupplyChain.Paid, \"Barang belum dibayar\");\r\n        items[_itemIndex]._state = StateSupplyChain.Delivered;\r\n        emit SupplyChainStep(_itemIndex, uint(StateSupplyChain.Delivered), address(items[_itemIndex].item));\r\n    }\r\n\r\n} ",
  "sourcePath": "D:\\__LEARN\\Blockchain\\pos_blockchain\\contracts\\ItemManager.sol",
  "compiler": {
    "name": "solc",
    "version": "0.6.1+commit.e6f7d5a4.Emscripten.clang"
  },
  "schemaVersion": "3.4.4",
  "updatedAt": "2022-02-25T02:57:19.181Z",
  "networkType": "ethereum",
  "devdoc": {
    "methods": {}
  },
  "userdoc": {
    "methods": {}
  }
}